{
  "contractName": "NFTTicket",
  "abi": [
    {
      "inputs": [
        {
          "internalType": "string",
          "name": "uri_",
          "type": "string"
        }
      ],
      "stateMutability": "nonpayable",
      "type": "constructor"
    },
    {
      "anonymous": false,
      "inputs": [
        {
          "indexed": true,
          "internalType": "address",
          "name": "account",
          "type": "address"
        },
        {
          "indexed": true,
          "internalType": "address",
          "name": "operator",
          "type": "address"
        },
        {
          "indexed": false,
          "internalType": "bool",
          "name": "approved",
          "type": "bool"
        }
      ],
      "name": "ApprovalForAll",
      "type": "event"
    },
    {
      "anonymous": false,
      "inputs": [
        {
          "indexed": true,
          "internalType": "address",
          "name": "previousOwner",
          "type": "address"
        },
        {
          "indexed": true,
          "internalType": "address",
          "name": "newOwner",
          "type": "address"
        }
      ],
      "name": "OwnershipTransferred",
      "type": "event"
    },
    {
      "anonymous": false,
      "inputs": [
        {
          "indexed": true,
          "internalType": "address",
          "name": "operator",
          "type": "address"
        },
        {
          "indexed": true,
          "internalType": "address",
          "name": "from",
          "type": "address"
        },
        {
          "indexed": true,
          "internalType": "address",
          "name": "to",
          "type": "address"
        },
        {
          "indexed": false,
          "internalType": "uint256[]",
          "name": "ids",
          "type": "uint256[]"
        },
        {
          "indexed": false,
          "internalType": "uint256[]",
          "name": "values",
          "type": "uint256[]"
        }
      ],
      "name": "TransferBatch",
      "type": "event"
    },
    {
      "anonymous": false,
      "inputs": [
        {
          "indexed": true,
          "internalType": "address",
          "name": "operator",
          "type": "address"
        },
        {
          "indexed": true,
          "internalType": "address",
          "name": "from",
          "type": "address"
        },
        {
          "indexed": true,
          "internalType": "address",
          "name": "to",
          "type": "address"
        },
        {
          "indexed": false,
          "internalType": "uint256",
          "name": "id",
          "type": "uint256"
        },
        {
          "indexed": false,
          "internalType": "uint256",
          "name": "value",
          "type": "uint256"
        }
      ],
      "name": "TransferSingle",
      "type": "event"
    },
    {
      "anonymous": false,
      "inputs": [
        {
          "indexed": false,
          "internalType": "string",
          "name": "value",
          "type": "string"
        },
        {
          "indexed": true,
          "internalType": "uint256",
          "name": "id",
          "type": "uint256"
        }
      ],
      "name": "URI",
      "type": "event"
    },
    {
      "inputs": [],
      "name": "owner",
      "outputs": [
        {
          "internalType": "address",
          "name": "",
          "type": "address"
        }
      ],
      "stateMutability": "view",
      "type": "function"
    },
    {
      "inputs": [],
      "name": "renounceOwnership",
      "outputs": [],
      "stateMutability": "nonpayable",
      "type": "function"
    },
    {
      "inputs": [
        {
          "internalType": "address",
          "name": "newOwner",
          "type": "address"
        }
      ],
      "name": "transferOwnership",
      "outputs": [],
      "stateMutability": "nonpayable",
      "type": "function"
    },
    {
      "inputs": [
        {
          "internalType": "address",
          "name": "to",
          "type": "address"
        },
        {
          "internalType": "uint256",
          "name": "tokenId",
          "type": "uint256"
        },
        {
          "internalType": "uint256",
          "name": "amount",
          "type": "uint256"
        },
        {
          "internalType": "bytes32",
          "name": "_saltOfCollection",
          "type": "bytes32"
        },
        {
          "internalType": "uint256",
          "name": "_lifetime",
          "type": "uint256"
        }
      ],
      "name": "mint",
      "outputs": [
        {
          "internalType": "bool",
          "name": "",
          "type": "bool"
        }
      ],
      "stateMutability": "nonpayable",
      "type": "function"
    },
    {
      "inputs": [
        {
          "internalType": "bytes4",
          "name": "interfaceId",
          "type": "bytes4"
        }
      ],
      "name": "supportsInterface",
      "outputs": [
        {
          "internalType": "bool",
          "name": "",
          "type": "bool"
        }
      ],
      "stateMutability": "view",
      "type": "function"
    },
    {
      "inputs": [
        {
          "internalType": "uint256",
          "name": "id",
          "type": "uint256"
        }
      ],
      "name": "checkLifeTime",
      "outputs": [
        {
          "internalType": "uint256",
          "name": "",
          "type": "uint256"
        }
      ],
      "stateMutability": "view",
      "type": "function"
    },
    {
      "inputs": [
        {
          "internalType": "uint256",
          "name": "",
          "type": "uint256"
        }
      ],
      "name": "uri",
      "outputs": [
        {
          "internalType": "string",
          "name": "",
          "type": "string"
        }
      ],
      "stateMutability": "view",
      "type": "function"
    },
    {
      "inputs": [
        {
          "internalType": "address",
          "name": "account",
          "type": "address"
        },
        {
          "internalType": "uint256",
          "name": "id",
          "type": "uint256"
        }
      ],
      "name": "balanceOf",
      "outputs": [
        {
          "internalType": "uint256",
          "name": "",
          "type": "uint256"
        }
      ],
      "stateMutability": "view",
      "type": "function"
    },
    {
      "inputs": [
        {
          "internalType": "address[]",
          "name": "accounts",
          "type": "address[]"
        },
        {
          "internalType": "uint256[]",
          "name": "ids",
          "type": "uint256[]"
        }
      ],
      "name": "balanceOfBatch",
      "outputs": [
        {
          "internalType": "uint256[]",
          "name": "",
          "type": "uint256[]"
        }
      ],
      "stateMutability": "view",
      "type": "function"
    },
    {
      "inputs": [
        {
          "internalType": "address",
          "name": "operator",
          "type": "address"
        },
        {
          "internalType": "bool",
          "name": "approved",
          "type": "bool"
        }
      ],
      "name": "setApprovalForAll",
      "outputs": [],
      "stateMutability": "nonpayable",
      "type": "function"
    },
    {
      "inputs": [
        {
          "internalType": "address",
          "name": "account",
          "type": "address"
        },
        {
          "internalType": "address",
          "name": "operator",
          "type": "address"
        }
      ],
      "name": "isApprovedForAll",
      "outputs": [
        {
          "internalType": "bool",
          "name": "",
          "type": "bool"
        }
      ],
      "stateMutability": "view",
      "type": "function"
    },
    {
      "inputs": [
        {
          "internalType": "address",
          "name": "from",
          "type": "address"
        },
        {
          "internalType": "address",
          "name": "to",
          "type": "address"
        },
        {
          "internalType": "uint256",
          "name": "id",
          "type": "uint256"
        },
        {
          "internalType": "uint256",
          "name": "amount",
          "type": "uint256"
        },
        {
          "internalType": "bytes",
          "name": "data",
          "type": "bytes"
        }
      ],
      "name": "safeTransferFrom",
      "outputs": [],
      "stateMutability": "nonpayable",
      "type": "function"
    },
    {
      "inputs": [
        {
          "internalType": "address",
          "name": "from",
          "type": "address"
        },
        {
          "internalType": "address",
          "name": "to",
          "type": "address"
        },
        {
          "internalType": "uint256[]",
          "name": "ids",
          "type": "uint256[]"
        },
        {
          "internalType": "uint256[]",
          "name": "amounts",
          "type": "uint256[]"
        },
        {
          "internalType": "bytes",
          "name": "data",
          "type": "bytes"
        }
      ],
      "name": "safeBatchTransferFrom",
      "outputs": [],
      "stateMutability": "nonpayable",
      "type": "function"
    },
    {
      "inputs": [
        {
          "internalType": "uint256",
          "name": "_id",
          "type": "uint256"
        }
      ],
      "name": "chechEventInfo",
      "outputs": [
        {
          "internalType": "bytes32",
          "name": "",
          "type": "bytes32"
        }
      ],
      "stateMutability": "view",
      "type": "function"
    }
  ],
  "bytecode": "0x60806040523480156200001157600080fd5b506040516200205538038062002055833981016040819052620000349162000188565b6200005a6200004b64010000000062000075810204565b64010000000062000079810204565b6200006e81640100000000620000c9810204565b50620002e4565b3390565b60008054600160a060020a03838116600160a060020a0319831681178455604051919092169283917f8be0079c531659141344cd1fd0a4f28419497f9722a3daafe3b4186f6b6457e09190a35050565b8051620000de906004906020840190620000e2565b5050565b828054620000f0906200025f565b90600052602060002090601f0160209004810192826200011457600085556200015f565b82601f106200012f57805160ff19168380011785556200015f565b828001600101855582156200015f579182015b828111156200015f57825182559160200191906001019062000142565b506200016d92915062000171565b5090565b5b808211156200016d576000815560010162000172565b600060208083850312156200019b578182fd5b825167ffffffffffffffff80821115620001b3578384fd5b818501915085601f830112620001c7578384fd5b815181811115620001dc57620001dc620002b5565b604051601f8201601f19908116603f01168101908382118183101715620002075762000207620002b5565b8160405282815288868487010111156200021f578687fd5b8693505b8284101562000242578484018601518185018701529285019262000223565b828411156200025357868684830101525b98975050505050505050565b6002810460018216806200027457607f821691505b60208210811415620002af577f4e487b7100000000000000000000000000000000000000000000000000000000600052602260045260246000fd5b50919050565b7f4e487b7100000000000000000000000000000000000000000000000000000000600052604160045260246000fd5b611d6180620002f46000396000f3fe608060405234801561001057600080fd5b5060043610610106576000357c0100000000000000000000000000000000000000000000000000000000900480638da5cb5b116100a9578063cc297ee611610083578063cc297ee6146101ff578063e985e9c514610212578063f242432a14610225578063f2fde38b1461023857610106565b80638da5cb5b146101c4578063a22cb465146101d9578063c81a1c3c146101ec57610106565b80632eb2c2d6116100e55780632eb2c2d6146101745780634e1273f414610189578063715018a6146101a957806377ef21ac146101b157610106565b8062fdd58e1461010b57806301ffc9a7146101345780630e89341c14610154575b600080fd5b61011e610119366004611349565b61024b565b60405161012b9190611652565b60405180910390f35b61014761014236600461147c565b6102a7565b60405161012b9190611647565b6101676101623660046114b4565b610321565b60405161012b919061165b565b610187610182366004611206565b6103b5565b005b61019c6101973660046113b3565b610458565b60405161012b9190611606565b610187610587565b61011e6101bf3660046114b4565b6105d5565b6101cc6105fa565b60405161012b9190611551565b6101876101e736600461130f565b61060a565b6101476101fa366004611372565b610620565b61011e61020d3660046114b4565b61068d565b6101476102203660046111d4565b61069f565b6101876102333660046112ac565b6106cd565b6101876102463660046111ba565b610763565b6000600160a060020a03831661027f5760405160e560020a62461bcd02815260040161027690611728565b60405180910390fd5b506000908152600160209081526040808320600160a060020a03949094168352929052205490565b6000600160e060020a031982167fd9b67a2600000000000000000000000000000000000000000000000000000000148061030a5750600160e060020a031982167f0e89341c00000000000000000000000000000000000000000000000000000000145b806103195750610319826107da565b90505b919050565b60606004805461033090611b97565b80601f016020809104026020016040519081016040528092919081815260200182805461035c90611b97565b80156103a95780601f1061037e576101008083540402835291602001916103a9565b820191906000526020600020905b81548152906001019060200180831161038c57829003601f168201915b50505050509050919050565b6103bd61080c565b600160a060020a03166103ce6105fa565b600160a060020a0316146103f75760405160e560020a62461bcd0281526004016102769061198d565b6103ff61080c565b600160a060020a031685600160a060020a0316148061042557506104258561022061080c565b6104445760405160e560020a62461bcd0281526004016102769061189c565b6104518585858585610810565b5050505050565b6060815183511461047e5760405160e560020a62461bcd02815260040161027690611a1f565b6000835167ffffffffffffffff8111156104ab5760e060020a634e487b7102600052604160045260246000fd5b6040519080825280602002602001820160405280156104d4578160200160208202803683370190505b50905060005b845181101561057f576105418582815181106105095760e060020a634e487b7102600052603260045260246000fd5b60200260200101518583815181106105345760e060020a634e487b7102600052603260045260246000fd5b602002602001015161024b565b8282815181106105645760e060020a634e487b7102600052603260045260246000fd5b602090810291909101015261057881611c02565b90506104da565b509392505050565b61058f61080c565b600160a060020a03166105a06105fa565b600160a060020a0316146105c95760405160e560020a62461bcd0281526004016102769061198d565b6105d360006109f9565b565b600081815260026020526040812060018101546105f3904290611b80565b9392505050565b600054600160a060020a03165b90565b61061c61061561080c565b8383610a56565b5050565b600061062a61080c565b600160a060020a031661063b6105fa565b600160a060020a0316146106645760405160e560020a62461bcd0281526004016102769061198d565b610681868686858760405180602001604052806000815250610afc565b50600195945050505050565b60009081526002602052604090205490565b600160a060020a03918216600090815260036020908152604080832093909416825291909152205460ff1690565b6000838152600260205260409020600181015442106107015760405160e560020a62461bcd028152600401610276906118f9565b61070961080c565b600160a060020a031686600160a060020a0316148061072f575061072f8661022061080c565b61074e5760405160e560020a62461bcd028152600401610276906117e2565b61075b8686868686610c58565b505050505050565b61076b61080c565b600160a060020a031661077c6105fa565b600160a060020a0316146107a55760405160e560020a62461bcd0281526004016102769061198d565b600160a060020a0381166107ce5760405160e560020a62461bcd02815260040161027690611785565b6107d7816109f9565b50565b600160e060020a031981167f01ffc9a70000000000000000000000000000000000000000000000000000000014919050565b3390565b81518351146108345760405160e560020a62461bcd02815260040161027690611a7c565b600160a060020a03841661085d5760405160e560020a62461bcd0281526004016102769061183f565b600061086761080c565b905061087781878787878761075b565b60005b84518110156109855760008582815181106108a85760e060020a634e487b7102600052603260045260246000fd5b6020026020010151905060008583815181106108d75760e060020a634e487b7102600052603260045260246000fd5b6020908102919091018101516000848152600183526040808220600160a060020a038e16835290935291909120549091508181101561092b5760405160e560020a62461bcd02815260040161027690611930565b6000838152600160209081526040808320600160a060020a038e8116855292528083208585039055908b1682528120805484929061096a908490611b68565b925050819055505050508061097e90611c02565b905061087a565b5084600160a060020a031686600160a060020a031682600160a060020a03167f4a39dc06d4c0dbc64b70af90fd698a233a518aa5d07e595d983b8c0526c8f7fb87876040516109d5929190611619565b60405180910390a46109eb81878787878761075b565b61075b818787878787610de8565b60008054600160a060020a0383811673ffffffffffffffffffffffffffffffffffffffff19831681178455604051919092169283917f8be0079c531659141344cd1fd0a4f28419497f9722a3daafe3b4186f6b6457e09190a35050565b81600160a060020a031683600160a060020a03161415610a8b5760405160e560020a62461bcd028152600401610276906119c2565b600160a060020a0383811660008181526003602090815260408083209487168084529490915290819020805460ff1916851515179055517f17307eab39ab6107e8899845ad3d59bd9653f200f220920489ca2b5937696c3190610aef908590611647565b60405180910390a3505050565b6000858152600260205260409020828155610b174285611b68565b600182018190554210610b3f5760405160e560020a62461bcd028152600401610276906118f9565b600160a060020a038716610b685760405160e560020a62461bcd02815260040161027690611ad9565b6000610b7261080c565b90506000610b7f88610f51565b90506000610b8c88610f51565b9050610b9d8360008c85858a61075b565b6000898152600160209081526040808320600160a060020a038e168452909152812080548a9290610bcf908490611b68565b9250508190555089600160a060020a03166000600160a060020a031684600160a060020a03167fc3d58168c5ae7397731d063d5bbf3d657854427343f4c083240f7aacaa2d0f628c8c604051610c26929190611b36565b60405180910390a4610c3d8360008c85858a61075b565b610c4c8360008c8c8c8a610fad565b50505050505050505050565b600083815260026020526040902060018101544210610c8c5760405160e560020a62461bcd028152600401610276906118f9565b600160a060020a038516610cb55760405160e560020a62461bcd0281526004016102769061183f565b6000610cbf61080c565b90506000610ccc86610f51565b90506000610cd986610f51565b9050610ce9838a8a85858a61075b565b6000878152600160209081526040808320600160a060020a038d16845290915290205486811015610d2f5760405160e560020a62461bcd02815260040161027690611930565b6000888152600160209081526040808320600160a060020a038e8116855292528083208a85039055908b16825281208054899290610d6e908490611b68565b9250508190555088600160a060020a03168a600160a060020a031685600160a060020a03167fc3d58168c5ae7397731d063d5bbf3d657854427343f4c083240f7aacaa2d0f628b8b604051610dc4929190611b36565b60405180910390a4610dda848b8b86868b61075b565b610c4c848b8b8b8b8b610fad565b610dfa84600160a060020a03166110b3565b1561075b576040517fbc197c81000000000000000000000000000000000000000000000000000000008152600160a060020a0385169063bc197c8190610e4c9089908990889088908890600401611565565b602060405180830381600087803b158015610e6657600080fd5b505af1925050508015610e96575060408051601f3d908101601f19168201909252610e9391810190611498565b60015b610efc57610ea2611c4f565b806308c379a01415610edf5750610eb7611c83565b80610ec25750610ee1565b8060405160e560020a62461bcd028152600401610276919061165b565b505b60405160e560020a62461bcd0281526004016102769061166e565b600160e060020a031981167fbc197c810000000000000000000000000000000000000000000000000000000014610f485760405160e560020a62461bcd028152600401610276906116cb565b50505050505050565b60408051600180825281830190925260609160009190602080830190803683370190505090508281600081518110610f9c5760e060020a634e487b7102600052603260045260246000fd5b602090810291909101015292915050565b610fbf84600160a060020a03166110b3565b1561075b576040517ff23a6e61000000000000000000000000000000000000000000000000000000008152600160a060020a0385169063f23a6e619061101190899089908890889088906004016115c3565b602060405180830381600087803b15801561102b57600080fd5b505af192505050801561105b575060408051601f3d908101601f1916820190925261105891810190611498565b60015b61106757610ea2611c4f565b600160e060020a031981167ff23a6e610000000000000000000000000000000000000000000000000000000014610f485760405160e560020a62461bcd028152600401610276906116cb565b600160a060020a03163b151590565b8035600160a060020a038116811461031c57600080fd5b600082601f8301126110e9578081fd5b813560206110f682611b44565b6040516111038282611bd5565b838152828101915085830183850287018401881015611120578586fd5b855b8581101561113e57813584529284019290840190600101611122565b5090979650505050505050565b600082601f83011261115b578081fd5b813567ffffffffffffffff81111561117557611175611c36565b60405161118c601f8301601f191660200182611bd5565b8181528460208386010111156111a0578283fd5b816020850160208301379081016020019190915292915050565b6000602082840312156111cb578081fd5b6105f3826110c2565b600080604083850312156111e6578081fd5b6111ef836110c2565b91506111fd602084016110c2565b90509250929050565b600080600080600060a0868803121561121d578081fd5b611226866110c2565b9450611234602087016110c2565b9350604086013567ffffffffffffffff80821115611250578283fd5b61125c89838a016110d9565b94506060880135915080821115611271578283fd5b61127d89838a016110d9565b93506080880135915080821115611292578283fd5b5061129f8882890161114b565b9150509295509295909350565b600080600080600060a086880312156112c3578081fd5b6112cc866110c2565b94506112da602087016110c2565b93506040860135925060608601359150608086013567ffffffffffffffff811115611303578182fd5b61129f8882890161114b565b60008060408385031215611321578182fd5b61132a836110c2565b91506020830135801515811461133e578182fd5b809150509250929050565b6000806040838503121561135b578182fd5b611364836110c2565b946020939093013593505050565b600080600080600060a08688031215611389578081fd5b611392866110c2565b97602087013597506040870135966060810135965060800135945092505050565b600080604083850312156113c5578182fd5b823567ffffffffffffffff808211156113dc578384fd5b818501915085601f8301126113ef578384fd5b813560206113fc82611b44565b6040516114098282611bd5565b8381528281019150858301838502870184018b1015611426578889fd5b8896505b8487101561144f5761143b816110c2565b83526001969096019591830191830161142a565b5096505086013592505080821115611465578283fd5b50611472858286016110d9565b9150509250929050565b60006020828403121561148d578081fd5b81356105f381611d15565b6000602082840312156114a9578081fd5b81516105f381611d15565b6000602082840312156114c5578081fd5b5035919050565b6000815180845260208085019450808401835b838110156114fb578151875295820195908201906001016114df565b509495945050505050565b60008151808452815b8181101561152b5760208185018101518683018201520161150f565b8181111561153c5782602083870101525b50601f01601f19169290920160200192915050565b600160a060020a0391909116815260200190565b6000600160a060020a03808816835280871660208401525060a0604083015261159160a08301866114cc565b82810360608401526115a381866114cc565b905082810360808401526115b78185611506565b98975050505050505050565b6000600160a060020a03808816835280871660208401525084604083015283606083015260a060808301526115fb60a0830184611506565b979650505050505050565b6000602082526105f360208301846114cc565b60006040825261162c60408301856114cc565b828103602084015261163e81856114cc565b95945050505050565b901515815260200190565b90815260200190565b6000602082526105f36020830184611506565b60208082526034908201527f455243313135353a207472616e7366657220746f206e6f6e204552433131353560408201527f526563656976657220696d706c656d656e746572000000000000000000000000606082015260800190565b60208082526028908201527f455243313135353a204552433131353552656365697665722072656a6563746560408201527f6420746f6b656e73000000000000000000000000000000000000000000000000606082015260800190565b6020808252602b908201527f455243313135353a2062616c616e636520717565727920666f7220746865207a60408201527f65726f2061646472657373000000000000000000000000000000000000000000606082015260800190565b60208082526026908201527f4f776e61626c653a206e6577206f776e657220697320746865207a65726f206160408201527f6464726573730000000000000000000000000000000000000000000000000000606082015260800190565b60208082526029908201527f455243313135353a2063616c6c6572206973206e6f74206f776e6572206e6f7260408201527f20617070726f7665640000000000000000000000000000000000000000000000606082015260800190565b60208082526025908201527f455243313135353a207472616e7366657220746f20746865207a65726f20616460408201527f6472657373000000000000000000000000000000000000000000000000000000606082015260800190565b60208082526032908201527f455243313135353a207472616e736665722063616c6c6572206973206e6f742060408201527f6f776e6572206e6f7220617070726f7665640000000000000000000000000000606082015260800190565b60208082526018908201527f6c69666554696d65206f66207469636b657420656e6465640000000000000000604082015260600190565b6020808252602a908201527f455243313135353a20696e73756666696369656e742062616c616e636520666f60408201527f72207472616e7366657200000000000000000000000000000000000000000000606082015260800190565b6020808252818101527f4f776e61626c653a2063616c6c6572206973206e6f7420746865206f776e6572604082015260600190565b60208082526029908201527f455243313135353a2073657474696e6720617070726f76616c2073746174757360408201527f20666f722073656c660000000000000000000000000000000000000000000000606082015260800190565b60208082526029908201527f455243313135353a206163636f756e747320616e6420696473206c656e67746860408201527f206d69736d617463680000000000000000000000000000000000000000000000606082015260800190565b60208082526028908201527f455243313135353a2069647320616e6420616d6f756e7473206c656e6774682060408201527f6d69736d61746368000000000000000000000000000000000000000000000000606082015260800190565b60208082526021908201527f455243313135353a206d696e7420746f20746865207a65726f2061646472657360408201527f7300000000000000000000000000000000000000000000000000000000000000606082015260800190565b918252602082015260400190565b600067ffffffffffffffff821115611b5e57611b5e611c36565b5060209081020190565b60008219821115611b7b57611b7b611c1d565b500190565b600082821015611b9257611b92611c1d565b500390565b600281046001821680611bab57607f821691505b60208210811415611bcf5760e060020a634e487b7102600052602260045260246000fd5b50919050565b601f8201601f1916810167ffffffffffffffff81118282101715611bfb57611bfb611c36565b6040525050565b6000600019821415611c1657611c16611c1d565b5060010190565b60e060020a634e487b7102600052601160045260246000fd5b60e060020a634e487b7102600052604160045260246000fd5b600060033d111561060757600481823e517c0100000000000000000000000000000000000000000000000000000000900490565b600060443d1015611c9357610607565b6040516003193d81016004833e81513d67ffffffffffffffff8160248401118184111715611cc5575050505050610607565b8285019150815181811115611cdf57505050505050610607565b843d8701016020828501011115611cfb57505050505050610607565b611d0a60208286010187611bd5565b509094505050505090565b600160e060020a0319811681146107d757600080fdfea26469706673582212205d39427c48638e198c9b5d53d2159a9ac6507141ccf5473005332db39473f0e464736f6c63430008010033",
  "immutableReferences": {},
  "source": "// SPDX-License-Identifier: MIT\n// OpenZeppelin Contracts (last updated v4.6.0) (token/ERC1155/ERC1155.sol)\n\npragma solidity ^0.8.0;\n\nimport \"./IERC1155.sol\";\nimport \"./IERC1155Receiver.sol\";\nimport \"./extensions/IERC1155MetadataURI.sol\";\nimport \"../../utils/Address.sol\";\nimport \"../../utils/Context.sol\";\nimport \"../../utils/introspection/ERC165.sol\";\nimport \"../../access/Ownable.sol\";\n\n/**\n * @dev Implementation of the basic standard multi-token.\n * See https://eips.ethereum.org/EIPS/eip-1155\n * Originally based on code by Enjin: https://github.com/enjin/erc-1155\n *\n * _Available since v3.1._\n */\ncontract NFTTicket is Context, ERC165, IERC1155, IERC1155MetadataURI,Ownable {\n    using Address for address;\n    struct EventInfo{\n        bytes32 hashEvent;\n        uint lifetime;\n     }\n    // Mapping from token ID to account balances\n    mapping(uint256 => mapping(address => uint256)) private _balances;\n    //mapping from token id to hashevent and lifetime\n    mapping(uint => EventInfo) private LifeHashMap;\n//return _balances[id][account];\n    // Mapping from account to operator approvals\n    mapping(address => mapping(address => bool)) private _operatorApprovals;\n\n    // Used as the URI for all token types by relying on ID substitution, e.g. https://token-cdn-domain/{id}.json\n    string private _uri;\n\n    /**\n     * @dev See {_setURI}.\n     */\n    constructor(string memory uri_) {\n        _setURI(uri_);\n    }\n\n    function mint(address to, uint tokenId, uint amount,bytes32 _saltOfCollection,uint _lifetime) public onlyOwner returns (bool) {\n\t\t _mint(to, tokenId, amount, _lifetime,_saltOfCollection, \"\");\n\t\t\n\t\treturn true;\n\t}\n\n    /**\n     * @dev See {IERC165-supportsInterface}.\n     */\n    function supportsInterface(bytes4 interfaceId) public view virtual override(ERC165, IERC165) returns (bool) {\n        return\n            interfaceId == type(IERC1155).interfaceId ||\n            interfaceId == type(IERC1155MetadataURI).interfaceId ||\n            super.supportsInterface(interfaceId);\n    }\n\n    function checkLifeTime(uint id)public view returns(uint){\n        EventInfo storage info = LifeHashMap[id];\n        return info.lifetime - block.timestamp;\n    }\n    \n\n    \n    /**\n     * @dev See {IERC1155MetadataURI-uri}.\n     *\n     * This implementation returns the same URI for *all* token types. It relies\n     * on the token type ID substitution mechanism\n     * https://eips.ethereum.org/EIPS/eip-1155#metadata[defined in the EIP].\n     *\n     * Clients calling this function must replace the `\\{id\\}` substring with the\n     * actual token type ID.\n     */\n    function uri(uint256) public view virtual override returns (string memory) {\n        return _uri;\n    }\n\n    /**\n     * @dev See {IERC1155-balanceOf}.\n     *\n     * Requirements:\n     *\n     * - `account` cannot be the zero address.\n     */\n    function balanceOf(address account, uint256 id) public view virtual override returns (uint256) {\n        require(account != address(0), \"ERC1155: balance query for the zero address\");\n        return _balances[id][account];\n    }\n\n    /**\n     * @dev See {IERC1155-balanceOfBatch}.\n     *\n     * Requirements:\n     *\n     * - `accounts` and `ids` must have the same length.\n     */\n    function balanceOfBatch(address[] memory accounts, uint256[] memory ids)\n        public\n        view\n        virtual\n        override\n        returns (uint256[] memory)\n    {\n        require(accounts.length == ids.length, \"ERC1155: accounts and ids length mismatch\");\n\n        uint256[] memory batchBalances = new uint256[](accounts.length);\n\n        for (uint256 i = 0; i < accounts.length; ++i) {\n            batchBalances[i] = balanceOf(accounts[i], ids[i]);\n        }\n\n        return batchBalances;\n    }\n\n    /**\n     * @dev See {IERC1155-setApprovalForAll}.\n     */\n    function setApprovalForAll(address operator, bool approved) public virtual override {\n        _setApprovalForAll(_msgSender(), operator, approved);\n    }\n\n    /**\n     * @dev See {IERC1155-isApprovedForAll}.\n     */\n    function isApprovedForAll(address account, address operator) public view virtual override returns (bool) {\n        return _operatorApprovals[account][operator];\n    }\n\n    /**\n     * @dev See {IERC1155-safeTransferFrom}.\n     */\n    function safeTransferFrom(\n        address from,\n        address to,\n        uint256 id,\n        uint256 amount,\n        bytes memory data\n    ) public virtual override {\n        ///////////////////////////////////////////\n        EventInfo storage info = LifeHashMap[id]; \n        require(info.lifetime > block.timestamp,\"lifeTime of ticket ended\");\n        ///////////////////////////////////////////\n        require(\n            from == _msgSender() || isApprovedForAll(from, _msgSender()),\n            \"ERC1155: caller is not owner nor approved\"\n        );\n        _safeTransferFrom(from, to, id, amount, data);\n    }\n\n    /**\n     * @dev See {IERC1155-safeBatchTransferFrom}.\n     */\n    function safeBatchTransferFrom(\n        address from,\n        address to,\n        uint256[] memory ids,\n        uint256[] memory amounts,\n        bytes memory data\n    ) public virtual override onlyOwner {\n\n        require(\n            from == _msgSender() || isApprovedForAll(from, _msgSender()),\n            \"ERC1155: transfer caller is not owner nor approved\"\n        );\n        _safeBatchTransferFrom(from, to, ids, amounts, data);\n    }\n\n    /**\n     * @dev Transfers `amount` tokens of token type `id` from `from` to `to`.\n     *\n     * Emits a {TransferSingle} event.\n     *\n     * Requirements:\n     *\n     * - `to` cannot be the zero address.\n     * - `from` must have a balance of tokens of type `id` of at least `amount`.\n     * - If `to` refers to a smart contract, it must implement {IERC1155Receiver-onERC1155Received} and return the\n     * acceptance magic value.\n     */\n    function chechEventInfo(uint _id) public view returns(bytes32){\n\t\tEventInfo storage info = LifeHashMap[_id]; \n        return info.hashEvent;\n\t}\n    \n     \n    function _safeTransferFrom(\n        address from,\n        address to,\n        uint256 id,\n        uint256 amount,\n        bytes memory data\n    ) internal virtual {\n        ////////////////////////////////////////\n        EventInfo storage info = LifeHashMap[id]; \n        require(info.lifetime > block.timestamp,\"lifeTime of ticket ended\");\n        ////////////////////////////////////////\n\n        require(to != address(0), \"ERC1155: transfer to the zero address\");\n\n        address operator = _msgSender();\n        uint256[] memory ids = _asSingletonArray(id);\n        uint256[] memory amounts = _asSingletonArray(amount);\n\n        _beforeTokenTransfer(operator, from, to, ids, amounts, data);\n\n        uint256 fromBalance = _balances[id][from];\n        require(fromBalance >= amount, \"ERC1155: insufficient balance for transfer\");\n        unchecked {\n            _balances[id][from] = fromBalance - amount;\n        }\n        _balances[id][to] += amount;\n\n        emit TransferSingle(operator, from, to, id, amount);\n\n        _afterTokenTransfer(operator, from, to, ids, amounts, data);\n\n        _doSafeTransferAcceptanceCheck(operator, from, to, id, amount, data);\n    }\n\n    /**\n     * @dev xref:ROOT:erc1155.adoc#batch-operations[Batched] version of {_safeTransferFrom}.\n     *\n     * Emits a {TransferBatch} event.\n     *\n     * Requirements:\n     *\n     * - If `to` refers to a smart contract, it must implement {IERC1155Receiver-onERC1155BatchReceived} and return the\n     * acceptance magic value.\n     */\n    function _safeBatchTransferFrom(\n        address from,\n        address to,\n        uint256[] memory ids,\n        uint256[] memory amounts,\n        bytes memory data\n    ) internal virtual {\n        require(ids.length == amounts.length, \"ERC1155: ids and amounts length mismatch\");\n        require(to != address(0), \"ERC1155: transfer to the zero address\");\n\n        address operator = _msgSender();\n\n        _beforeTokenTransfer(operator, from, to, ids, amounts, data);\n\n        for (uint256 i = 0; i < ids.length; ++i) {\n            uint256 id = ids[i];\n            uint256 amount = amounts[i];\n\n            uint256 fromBalance = _balances[id][from];\n            require(fromBalance >= amount, \"ERC1155: insufficient balance for transfer\");\n            unchecked {\n                _balances[id][from] = fromBalance - amount;\n            }\n            _balances[id][to] += amount;\n        }\n\n        emit TransferBatch(operator, from, to, ids, amounts);\n\n        _afterTokenTransfer(operator, from, to, ids, amounts, data);\n\n        _doSafeBatchTransferAcceptanceCheck(operator, from, to, ids, amounts, data);\n    }\n\n    /**\n     * @dev Sets a new URI for all token types, by relying on the token type ID\n     * substitution mechanism\n     * https://eips.ethereum.org/EIPS/eip-1155#metadata[defined in the EIP].\n     *\n     * By this mechanism, any occurrence of the `\\{id\\}` substring in either the\n     * URI or any of the amounts in the JSON file at said URI will be replaced by\n     * clients with the token type ID.\n     *\n     * For example, the `https://token-cdn-domain/\\{id\\}.json` URI would be\n     * interpreted by clients as\n     * `https://token-cdn-domain/000000000000000000000000000000000000000000000000000000000004cce0.json`\n     * for token type ID 0x4cce0.\n     *\n     * See {uri}.\n     *\n     * Because these URIs cannot be meaningfully represented by the {URI} event,\n     * this function emits no events.\n     */\n    function _setURI(string memory newuri) internal virtual {\n        _uri = newuri;\n    }\n\n    /**\n     * @dev Creates `amount` tokens of token type `id`, and assigns them to `to`.\n     *\n     * Emits a {TransferSingle} event.\n     *\n     * Requirements:\n     *\n     * - `to` cannot be the zero address.\n     * - If `to` refers to a smart contract, it must implement {IERC1155Receiver-onERC1155Received} and return the\n     * acceptance magic value.\n     */\n    function _mint(\n        address to,\n        uint256 id,\n        uint256 amount,\n        uint _lifeTime,\n        bytes32 _hashEvent,\n        bytes memory data\n    ) internal virtual {\n        ////////////////////////////////////////////\n        EventInfo storage info = LifeHashMap[id]; \n        info.hashEvent = _hashEvent;\n        info.lifetime = _lifeTime + block.timestamp;\n        require(info.lifetime > block.timestamp,\"lifeTime of ticket ended\");\n        //////////////////////////////////////////////\n        require(to != address(0), \"ERC1155: mint to the zero address\");\n\n        address operator = _msgSender();\n        uint256[] memory ids = _asSingletonArray(id);\n        uint256[] memory amounts = _asSingletonArray(amount);\n\n        _beforeTokenTransfer(operator, address(0), to, ids, amounts, data);\n\n        _balances[id][to] += amount;\n        emit TransferSingle(operator, address(0), to, id, amount);\n\n        _afterTokenTransfer(operator, address(0), to, ids, amounts, data);\n\n        _doSafeTransferAcceptanceCheck(operator, address(0), to, id, amount, data);\n    }\n\n    /**\n     * @dev xref:ROOT:erc1155.adoc#batch-operations[Batched] version of {_mint}.\n     *\n     * Requirements:\n     *\n     * - `ids` and `amounts` must have the same length.\n     * - If `to` refers to a smart contract, it must implement {IERC1155Receiver-onERC1155BatchReceived} and return the\n     * acceptance magic value.\n     */\n    // function _mintBatch(\n    //     address to,\n    //     uint256[] memory ids,\n    //     uint256[] memory amounts,\n    //     bytes memory data\n    // ) internal virtual {\n    //     require(to != address(0), \"ERC1155: mint to the zero address\");\n    //     require(ids.length == amounts.length, \"ERC1155: ids and amounts length mismatch\");\n\n    //     address operator = _msgSender();\n\n    //     _beforeTokenTransfer(operator, address(0), to, ids, amounts, data);\n\n    //     for (uint256 i = 0; i < ids.length; i++) {\n    //         _balances[ids[i]][to] += amounts[i];\n    //     }\n\n    //     emit TransferBatch(operator, address(0), to, ids, amounts);\n\n    //     _afterTokenTransfer(operator, address(0), to, ids, amounts, data);\n\n    //     _doSafeBatchTransferAcceptanceCheck(operator, address(0), to, ids, amounts, data);\n    // }\n\n    /**\n     * @dev Destroys `amount` tokens of token type `id` from `from`\n     *\n     * Requirements:\n     *\n     * - `from` cannot be the zero address.\n     * - `from` must have at least `amount` tokens of token type `id`.\n     */\n    function _burn(\n        address from,\n        uint256 id,\n        uint256 amount\n    ) internal virtual {\n        require(from != address(0), \"ERC1155: burn from the zero address\");\n\n        address operator = _msgSender();\n        uint256[] memory ids = _asSingletonArray(id);\n        uint256[] memory amounts = _asSingletonArray(amount);\n\n        _beforeTokenTransfer(operator, from, address(0), ids, amounts, \"\");\n\n        uint256 fromBalance = _balances[id][from];\n        require(fromBalance >= amount, \"ERC1155: burn amount exceeds balance\");\n        unchecked {\n            _balances[id][from] = fromBalance - amount;\n        }\n\n        emit TransferSingle(operator, from, address(0), id, amount);\n\n        _afterTokenTransfer(operator, from, address(0), ids, amounts, \"\");\n    }\n\n    /**\n     * @dev xref:ROOT:erc1155.adoc#batch-operations[Batched] version of {_burn}.\n     *\n     * Requirements:\n     *\n     * - `ids` and `amounts` must have the same length.\n     */\n    function _burnBatch(\n        address from,\n        uint256[] memory ids,\n        uint256[] memory amounts\n    ) internal virtual {\n        require(from != address(0), \"ERC1155: burn from the zero address\");\n        require(ids.length == amounts.length, \"ERC1155: ids and amounts length mismatch\");\n\n        address operator = _msgSender();\n\n        _beforeTokenTransfer(operator, from, address(0), ids, amounts, \"\");\n\n        for (uint256 i = 0; i < ids.length; i++) {\n            uint256 id = ids[i];\n            uint256 amount = amounts[i];\n\n            uint256 fromBalance = _balances[id][from];\n            require(fromBalance >= amount, \"ERC1155: burn amount exceeds balance\");\n            unchecked {\n                _balances[id][from] = fromBalance - amount;\n            }\n        }\n\n        emit TransferBatch(operator, from, address(0), ids, amounts);\n\n        _afterTokenTransfer(operator, from, address(0), ids, amounts, \"\");\n    }\n\n    /**\n     * @dev Approve `operator` to operate on all of `owner` tokens\n     *\n     * Emits a {ApprovalForAll} event.\n     */\n    function _setApprovalForAll(\n        address owner,\n        address operator,\n        bool approved\n    ) internal virtual {\n        require(owner != operator, \"ERC1155: setting approval status for self\");\n        _operatorApprovals[owner][operator] = approved;\n        emit ApprovalForAll(owner, operator, approved);\n    }\n\n    /**\n     * @dev Hook that is called before any token transfer. This includes minting\n     * and burning, as well as batched variants.\n     *\n     * The same hook is called on both single and batched variants. For single\n     * transfers, the length of the `id` and `amount` arrays will be 1.\n     *\n     * Calling conditions (for each `id` and `amount` pair):\n     *\n     * - When `from` and `to` are both non-zero, `amount` of ``from``'s tokens\n     * of token type `id` will be  transferred to `to`.\n     * - When `from` is zero, `amount` tokens of token type `id` will be minted\n     * for `to`.\n     * - when `to` is zero, `amount` of ``from``'s tokens of token type `id`\n     * will be burned.\n     * - `from` and `to` are never both zero.\n     * - `ids` and `amounts` have the same, non-zero length.\n     *\n     * To learn more about hooks, head to xref:ROOT:extending-contracts.adoc#using-hooks[Using Hooks].\n     */\n    function _beforeTokenTransfer(\n        address operator,\n        address from,\n        address to,\n        uint256[] memory ids,\n        uint256[] memory amounts,\n        bytes memory data\n    ) internal virtual {}\n\n    /**\n     * @dev Hook that is called after any token transfer. This includes minting\n     * and burning, as well as batched variants.\n     *\n     * The same hook is called on both single and batched variants. For single\n     * transfers, the length of the `id` and `amount` arrays will be 1.\n     *\n     * Calling conditions (for each `id` and `amount` pair):\n     *\n     * - When `from` and `to` are both non-zero, `amount` of ``from``'s tokens\n     * of token type `id` will be  transferred to `to`.\n     * - When `from` is zero, `amount` tokens of token type `id` will be minted\n     * for `to`.\n     * - when `to` is zero, `amount` of ``from``'s tokens of token type `id`\n     * will be burned.\n     * - `from` and `to` are never both zero.\n     * - `ids` and `amounts` have the same, non-zero length.\n     *\n     * To learn more about hooks, head to xref:ROOT:extending-contracts.adoc#using-hooks[Using Hooks].\n     */\n    function _afterTokenTransfer(\n        address operator,\n        address from,\n        address to,\n        uint256[] memory ids,\n        uint256[] memory amounts,\n        bytes memory data\n    ) internal virtual {}\n\n    function _doSafeTransferAcceptanceCheck(\n        address operator,\n        address from,\n        address to,\n        uint256 id,\n        uint256 amount,\n        bytes memory data\n    ) private {\n        if (to.isContract()) {\n            try IERC1155Receiver(to).onERC1155Received(operator, from, id, amount, data) returns (bytes4 response) {\n                if (response != IERC1155Receiver.onERC1155Received.selector) {\n                    revert(\"ERC1155: ERC1155Receiver rejected tokens\");\n                }\n            } catch Error(string memory reason) {\n                revert(reason);\n            } catch {\n                revert(\"ERC1155: transfer to non ERC1155Receiver implementer\");\n            }\n        }\n    }\n\n    function _doSafeBatchTransferAcceptanceCheck(\n        address operator,\n        address from,\n        address to,\n        uint256[] memory ids,\n        uint256[] memory amounts,\n        bytes memory data\n    ) private {\n        if (to.isContract()) {\n            try IERC1155Receiver(to).onERC1155BatchReceived(operator, from, ids, amounts, data) returns (\n                bytes4 response\n            ) {\n                if (response != IERC1155Receiver.onERC1155BatchReceived.selector) {\n                    revert(\"ERC1155: ERC1155Receiver rejected tokens\");\n                }\n            } catch Error(string memory reason) {\n                revert(reason);\n            } catch {\n                revert(\"ERC1155: transfer to non ERC1155Receiver implementer\");\n            }\n        }\n    }\n\n    function _asSingletonArray(uint256 element) private pure returns (uint256[] memory) {\n        uint256[] memory array = new uint256[](1);\n        array[0] = element;\n\n        return array;\n    }\n}\n",
  "sourcePath": "@openzeppelin\\contracts\\token\\ERC1155\\NFTTicket.sol",
  "compiler": {
    "name": "solc",
    "version": "0.8.1+commit.df193b15.Emscripten.clang"
  },
  "schemaVersion": "3.4.6",
  "updatedAt": "2022-05-21T17:10:07.987Z",
  "devdoc": {
    "details": "Implementation of the basic standard multi-token. See https://eips.ethereum.org/EIPS/eip-1155 Originally based on code by Enjin: https://github.com/enjin/erc-1155 _Available since v3.1._",
    "kind": "dev",
    "methods": {
      "balanceOf(address,uint256)": {
        "details": "See {IERC1155-balanceOf}. Requirements: - `account` cannot be the zero address."
      },
      "balanceOfBatch(address[],uint256[])": {
        "details": "See {IERC1155-balanceOfBatch}. Requirements: - `accounts` and `ids` must have the same length."
      },
      "chechEventInfo(uint256)": {
        "details": "Transfers `amount` tokens of token type `id` from `from` to `to`. Emits a {TransferSingle} event. Requirements: - `to` cannot be the zero address. - `from` must have a balance of tokens of type `id` of at least `amount`. - If `to` refers to a smart contract, it must implement {IERC1155Receiver-onERC1155Received} and return the acceptance magic value."
      },
      "constructor": {
        "details": "See {_setURI}."
      },
      "isApprovedForAll(address,address)": {
        "details": "See {IERC1155-isApprovedForAll}."
      },
      "owner()": {
        "details": "Returns the address of the current owner."
      },
      "renounceOwnership()": {
        "details": "Leaves the contract without owner. It will not be possible to call `onlyOwner` functions anymore. Can only be called by the current owner. NOTE: Renouncing ownership will leave the contract without an owner, thereby removing any functionality that is only available to the owner."
      },
      "safeBatchTransferFrom(address,address,uint256[],uint256[],bytes)": {
        "details": "See {IERC1155-safeBatchTransferFrom}."
      },
      "safeTransferFrom(address,address,uint256,uint256,bytes)": {
        "details": "See {IERC1155-safeTransferFrom}."
      },
      "setApprovalForAll(address,bool)": {
        "details": "See {IERC1155-setApprovalForAll}."
      },
      "supportsInterface(bytes4)": {
        "details": "See {IERC165-supportsInterface}."
      },
      "transferOwnership(address)": {
        "details": "Transfers ownership of the contract to a new account (`newOwner`). Can only be called by the current owner."
      },
      "uri(uint256)": {
        "details": "See {IERC1155MetadataURI-uri}. This implementation returns the same URI for *all* token types. It relies on the token type ID substitution mechanism https://eips.ethereum.org/EIPS/eip-1155#metadata[defined in the EIP]. Clients calling this function must replace the `\\{id\\}` substring with the actual token type ID."
      }
    },
    "version": 1
  },
  "userdoc": {
    "kind": "user",
    "methods": {},
    "version": 1
  }
}