{
  "contractName": "TicketFactory",
  "abi": [
    {
      "inputs": [
        {
          "internalType": "contract NFTTicket",
          "name": "_nfttoken",
          "type": "address"
        },
        {
          "internalType": "uint256",
          "name": "fee",
          "type": "uint256"
        }
      ],
      "stateMutability": "nonpayable",
      "type": "constructor"
    },
    {
      "anonymous": false,
      "inputs": [
        {
          "indexed": false,
          "internalType": "bytes32",
          "name": "hashEvent",
          "type": "bytes32"
        },
        {
          "indexed": false,
          "internalType": "uint256",
          "name": "_countOfVIP",
          "type": "uint256"
        },
        {
          "indexed": false,
          "internalType": "uint256",
          "name": "_nftVIPid",
          "type": "uint256"
        }
      ],
      "name": "AddedVIPTicket",
      "type": "event"
    },
    {
      "anonymous": false,
      "inputs": [
        {
          "indexed": false,
          "internalType": "address",
          "name": "buyer",
          "type": "address"
        },
        {
          "indexed": false,
          "internalType": "uint256",
          "name": "countOfTicket",
          "type": "uint256"
        }
      ],
      "name": "BoughtTicket",
      "type": "event"
    },
    {
      "anonymous": false,
      "inputs": [
        {
          "indexed": false,
          "internalType": "address",
          "name": "buyer",
          "type": "address"
        },
        {
          "indexed": false,
          "internalType": "uint256",
          "name": "countOfVIPTIcket",
          "type": "uint256"
        }
      ],
      "name": "BoughtVIPTicket",
      "type": "event"
    },
    {
      "anonymous": false,
      "inputs": [
        {
          "indexed": false,
          "internalType": "bytes32",
          "name": "HashOfEvent",
          "type": "bytes32"
        },
        {
          "indexed": false,
          "internalType": "uint256",
          "name": "DataOfEnding",
          "type": "uint256"
        },
        {
          "indexed": false,
          "internalType": "string",
          "name": "nameEvent",
          "type": "string"
        },
        {
          "indexed": false,
          "internalType": "uint256",
          "name": "countOfTickets",
          "type": "uint256"
        },
        {
          "indexed": false,
          "internalType": "uint256",
          "name": "TicketPrice",
          "type": "uint256"
        }
      ],
      "name": "NewEvent",
      "type": "event"
    },
    {
      "inputs": [
        {
          "internalType": "bytes32",
          "name": "",
          "type": "bytes32"
        }
      ],
      "name": "EventBySalt",
      "outputs": [
        {
          "internalType": "uint256",
          "name": "countOfTickets",
          "type": "uint256"
        },
        {
          "internalType": "uint256",
          "name": "price",
          "type": "uint256"
        },
        {
          "internalType": "uint256",
          "name": "startSale",
          "type": "uint256"
        },
        {
          "internalType": "uint256",
          "name": "endSale",
          "type": "uint256"
        },
        {
          "internalType": "uint256",
          "name": "nftID",
          "type": "uint256"
        },
        {
          "internalType": "uint256",
          "name": "nftVIPid",
          "type": "uint256"
        },
        {
          "internalType": "uint256",
          "name": "countOfVIP",
          "type": "uint256"
        },
        {
          "internalType": "uint256",
          "name": "priceVIP",
          "type": "uint256"
        },
        {
          "internalType": "contract IERC20",
          "name": "paymentToken",
          "type": "address"
        },
        {
          "internalType": "address",
          "name": "creator",
          "type": "address"
        },
        {
          "internalType": "string",
          "name": "nameEvent",
          "type": "string"
        },
        {
          "internalType": "bytes32",
          "name": "saltOfEvent",
          "type": "bytes32"
        }
      ],
      "stateMutability": "view",
      "type": "function"
    },
    {
      "inputs": [],
      "name": "feePerTarget",
      "outputs": [
        {
          "internalType": "uint256",
          "name": "",
          "type": "uint256"
        }
      ],
      "stateMutability": "view",
      "type": "function"
    },
    {
      "inputs": [],
      "name": "nfttoken",
      "outputs": [
        {
          "internalType": "contract NFTTicket",
          "name": "",
          "type": "address"
        }
      ],
      "stateMutability": "view",
      "type": "function"
    },
    {
      "inputs": [],
      "name": "owner",
      "outputs": [
        {
          "internalType": "address",
          "name": "",
          "type": "address"
        }
      ],
      "stateMutability": "view",
      "type": "function"
    },
    {
      "inputs": [
        {
          "internalType": "uint256",
          "name": "_countOfTickets",
          "type": "uint256"
        },
        {
          "internalType": "uint256",
          "name": "_duration",
          "type": "uint256"
        },
        {
          "internalType": "uint256",
          "name": "_price",
          "type": "uint256"
        },
        {
          "internalType": "string",
          "name": "_nameEvent",
          "type": "string"
        },
        {
          "internalType": "contract IERC20",
          "name": "_paymentToken",
          "type": "address"
        },
        {
          "internalType": "uint256",
          "name": "_nftID",
          "type": "uint256"
        }
      ],
      "name": "createEvent",
      "outputs": [
        {
          "internalType": "bytes32",
          "name": "",
          "type": "bytes32"
        }
      ],
      "stateMutability": "nonpayable",
      "type": "function"
    },
    {
      "inputs": [
        {
          "internalType": "bytes32",
          "name": "hashEvent",
          "type": "bytes32"
        },
        {
          "internalType": "uint256",
          "name": "_countOfVIP",
          "type": "uint256"
        },
        {
          "internalType": "uint256",
          "name": "_priceVIP",
          "type": "uint256"
        },
        {
          "internalType": "uint256",
          "name": "_nftVIPid",
          "type": "uint256"
        }
      ],
      "name": "addVIPticketsToEvent",
      "outputs": [],
      "stateMutability": "nonpayable",
      "type": "function"
    },
    {
      "inputs": [
        {
          "internalType": "bytes32",
          "name": "hashInfo",
          "type": "bytes32"
        },
        {
          "internalType": "uint256",
          "name": "_countOfTicket",
          "type": "uint256"
        }
      ],
      "name": "buyTicket",
      "outputs": [
        {
          "internalType": "bool",
          "name": "",
          "type": "bool"
        }
      ],
      "stateMutability": "nonpayable",
      "type": "function"
    },
    {
      "inputs": [
        {
          "internalType": "bytes32",
          "name": "hashInfo",
          "type": "bytes32"
        },
        {
          "internalType": "uint256",
          "name": "_countOfVipTicket",
          "type": "uint256"
        }
      ],
      "name": "buyVipTicket",
      "outputs": [
        {
          "internalType": "uint256",
          "name": "",
          "type": "uint256"
        }
      ],
      "stateMutability": "nonpayable",
      "type": "function"
    },
    {
      "inputs": [
        {
          "internalType": "bytes32",
          "name": "hashevent",
          "type": "bytes32"
        }
      ],
      "name": "costOfVIPTicket",
      "outputs": [
        {
          "internalType": "uint256",
          "name": "",
          "type": "uint256"
        }
      ],
      "stateMutability": "view",
      "type": "function"
    },
    {
      "inputs": [
        {
          "internalType": "bytes32",
          "name": "hashevent",
          "type": "bytes32"
        }
      ],
      "name": "costOFDefoltTicket",
      "outputs": [
        {
          "internalType": "uint256",
          "name": "",
          "type": "uint256"
        }
      ],
      "stateMutability": "view",
      "type": "function"
    },
    {
      "inputs": [
        {
          "internalType": "bytes32",
          "name": "hashevent",
          "type": "bytes32"
        }
      ],
      "name": "VIPticketsLeft",
      "outputs": [
        {
          "internalType": "uint256",
          "name": "",
          "type": "uint256"
        }
      ],
      "stateMutability": "view",
      "type": "function"
    },
    {
      "inputs": [
        {
          "internalType": "bytes32",
          "name": "hashevent",
          "type": "bytes32"
        }
      ],
      "name": "defoltTicketLeft",
      "outputs": [
        {
          "internalType": "uint256",
          "name": "",
          "type": "uint256"
        }
      ],
      "stateMutability": "view",
      "type": "function"
    }
  ],
  "bytecode": "0x608060405234801561001057600080fd5b5060405161121a38038061121a83398101604081905261002f91610058565b60018054600160a060020a031916600160a060020a039390931692909217909155600355610090565b6000806040838503121561006a578182fd5b8251600160a060020a0381168114610080578283fd5b6020939093015192949293505050565b61117b8061009f6000396000f3fe608060405234801561001057600080fd5b50600436106100d1576000357c010000000000000000000000000000000000000000000000000000000090048063a3b461711161008e578063a3b461711461014a578063ad7e964114610175578063cb95719914610188578063ce6d51ca1461019b578063e295fa7f146101ae578063e3498038146101ce576100d1565b806303841279146100d65780631ecb8240146100ff57806359ea9d4c146101125780635bfd3f3a1461011a5780638da5cb5b1461012d5780639e70cd3f14610142575b600080fd5b6100e96100e4366004610cdf565b6101e3565b6040516100f69190610e96565b60405180910390f35b6100e961010d366004610c75565b610393565b6100e96103ab565b6100e9610128366004610c75565b6103b1565b6101356103c6565b6040516100f69190610dae565b6101356103d5565b61015d610158366004610c75565b6103e4565b6040516100f69c9b9a99989796959493929190610fb9565b6100e9610183366004610c75565b6104da565b6100e9610196366004610c75565b6104ef565b6100e96101a9366004610c8d565b610501565b6101c16101bc366004610c8d565b6107b6565b6040516100f69190610e8b565b6101e16101dc366004610cae565b610a67565b005b600080828987876040516020016101fd9493929190610f8f565b60408051601f198184030181529082905280516020909101206001547fc81a1c3c000000000000000000000000000000000000000000000000000000008352909250600160a060020a03169063c81a1c3c9061026590309087908e9087908f90600401610e5d565b602060405180830381600087803b15801561027f57600080fd5b505af1158015610293573d6000803e3d6000fd5b505050506040513d601f19601f820116820180604052508101906102b79190610c4e565b5060008181526020819052604090208981556001810188905542600282018190556102e3908a90611074565b6003820155600481018490556009810180543373ffffffffffffffffffffffffffffffffffffffff1991821617909155600882018054909116600160a060020a038716179055610337600a82018888610b9e565b508181600b01819055507f2668ebbeb00afc5552da298fafb5de33dac3d021ef627b5f735e917381ea5b1082826003015489898e8d60405161037e96959493929190610e9f565b60405180910390a15050979650505050505050565b6000818152602081905260409020600101545b919050565b60035481565b60009081526020819052604090206006015490565b600254600160a060020a031681565b600154600160a060020a031681565b600060208190529081526040902080546001820154600283015460038401546004850154600586015460068701546007880154600889015460098a0154600a8b0180549a9b999a989997989697959694959394600160a060020a03938416949290931692610451906110c2565b80601f016020809104026020016040519081016040528092919081815260200182805461047d906110c2565b80156104ca5780601f1061049f576101008083540402835291602001916104ca565b820191906000526020600020905b8154815290600101906020018083116104ad57829003601f168201915b50505050509080600b015490508c565b60009081526020819052604090206007015490565b60009081526020819052604090205490565b60008281526020819052604081206006810154610553576040517f08c379a000000000000000000000000000000000000000000000000000000000815260040161054a90610eea565b60405180910390fd5b4281600301541161056357600080fd5b6000838260070154610575919061108c565b9050600060035485610587919061108c565b61059190836110ab565b60088401546040517f23b872dd000000000000000000000000000000000000000000000000000000008152919250600160a060020a0316906323b872dd906105e190339030908790600401610dc2565b602060405180830381600087803b1580156105fb57600080fd5b505af115801561060f573d6000803e3d6000fd5b505050506040513d601f19601f820116820180604052508101906106339190610c4e565b50600883015460098401546040517fa9059cbb000000000000000000000000000000000000000000000000000000008152600160a060020a039283169263a9059cbb92610687929116908590600401610e44565b602060405180830381600087803b1580156106a157600080fd5b505af11580156106b5573d6000803e3d6000fd5b505050506040513d601f19601f820116820180604052508101906106d99190610c4e565b5060015460058401546040517ff242432a000000000000000000000000000000000000000000000000000000008152600160a060020a039092169163f242432a9161072c91309133918b90600401610de6565b600060405180830381600087803b15801561074657600080fd5b505af115801561075a573d6000803e3d6000fd5b5050505084836006015461076e91906110ab565b60068401556040517f266f5e8668e3ad91729f7f0b2b64618fe5e528426a89a26aea46be17cb7c8f16906107a59033908890610e44565b60405180910390a150505092915050565b60008082116107f1576040517f08c379a000000000000000000000000000000000000000000000000000000000815260040161054a90610f58565b60008381526020819052604090206003810154421061083c576040517f08c379a000000000000000000000000000000000000000000000000000000000815260040161054a90610f21565b600083826001015461084e919061108c565b9050600060035485610860919061108c565b61086a90836110ab565b60088401546040517f23b872dd000000000000000000000000000000000000000000000000000000008152919250600160a060020a0316906323b872dd906108ba90339030908790600401610dc2565b602060405180830381600087803b1580156108d457600080fd5b505af11580156108e8573d6000803e3d6000fd5b505050506040513d601f19601f8201168201806040525081019061090c9190610c4e565b50600883015460098401546040517fa9059cbb000000000000000000000000000000000000000000000000000000008152600160a060020a039283169263a9059cbb92610960929116908590600401610e44565b602060405180830381600087803b15801561097a57600080fd5b505af115801561098e573d6000803e3d6000fd5b505050506040513d601f19601f820116820180604052508101906109b29190610c4e565b506001546004808501546040517ff242432a000000000000000000000000000000000000000000000000000000008152600160a060020a039093169263f242432a92610a0492309233928c9101610de6565b600060405180830381600087803b158015610a1e57600080fd5b505af1158015610a32573d6000803e3d6000fd5b505050507f3618b0a7469bf1ba864e8b1926f16621c49ae96b79cdeb0e8acd0c6f0ec9236433866040516107a5929190610e44565b60008481526020819052604090206009810154600160a060020a03163314610a8e57600080fd5b6006810184905560078101839055600581018290556003810154600090610ab69042906110ab565b6001546040517fc81a1c3c000000000000000000000000000000000000000000000000000000008152919250600160a060020a03169063c81a1c3c90610b0890309087908a908c908890600401610e5d565b602060405180830381600087803b158015610b2257600080fd5b505af1158015610b36573d6000803e3d6000fd5b505050506040513d601f19601f82011682018060405250810190610b5a9190610c4e565b507f3c4f3e2df985db63b33ca9a9be40854a2ae6193971545f6ea4967f81843c98ca868685604051610b8e93929190610ed4565b60405180910390a1505050505050565b828054610baa906110c2565b90600052602060002090601f016020900481019282610bcc5760008555610c12565b82601f10610be55782800160ff19823516178555610c12565b82800160010185558215610c12579182015b82811115610c12578235825591602001919060010190610bf7565b50610c1e929150610c22565b5090565b5b80821115610c1e5760008155600101610c23565b8035600160a060020a03811681146103a657600080fd5b600060208284031215610c5f578081fd5b81518015158114610c6e578182fd5b9392505050565b600060208284031215610c86578081fd5b5035919050565b60008060408385031215610c9f578081fd5b50508035926020909101359150565b60008060008060808587031215610cc3578182fd5b5050823594602084013594506040840135936060013592509050565b600080600080600080600060c0888a031215610cf9578283fd5b873596506020880135955060408801359450606088013567ffffffffffffffff80821115610d25578485fd5b818a0191508a601f830112610d38578485fd5b813581811115610d46578586fd5b8b6020828501011115610d57578586fd5b602083019650809550505050610d6f60808901610c37565b915060a0880135905092959891949750929550565b60008284528282602086013780602084860101526020601f19601f85011685010190509392505050565b600160a060020a0391909116815260200190565b600160a060020a039384168152919092166020820152604081019190915260600190565b600160a060020a0394851681529290931660208301526040820152606081019190915260a0608082018190526003908201527f307830000000000000000000000000000000000000000000000000000000000060c082015260e00190565b600160a060020a03929092168252602082015260400190565b600160a060020a03959095168552602085019390935260408401919091526060830152608082015260a00190565b901515815260200190565b90815260200190565b600087825286602083015260a06040830152610ebf60a083018688610d84565b60608301949094525060800152949350505050565b9283526020830191909152604082015260600190565b6020808252601a908201527f616c6c20766970207469636b6574732061726520626f75676874000000000000604082015260600190565b60208082526018908201527f546f6f206c61746520746f206275792061207469636b65740000000000000000604082015260600190565b60208082526014908201527f63616e7420627579207a65726f207469636b6574000000000000000000000000604082015260600190565b600085825284602083015260606040830152610faf606083018486610d84565b9695505050505050565b60006101808e835260208e818501528d60408501528c60608501528b60808501528a60a08501528960c08501528860e0850152600160a060020a038089166101008601528088166101208601525081610140850152855180838601528392505b80831015611038578683018201518584016101a0015291810191611019565b8083111561104a57836101a082870101525b610160850195909552505050601f91909101601f1916016101a0019b9a5050505050505050505050565b6000821982111561108757611087611116565b500190565b60008160001904831182151516156110a6576110a6611116565b500290565b6000828210156110bd576110bd611116565b500390565b6002810460018216806110d657607f821691505b60208210811415611110577f4e487b7100000000000000000000000000000000000000000000000000000000600052602260045260246000fd5b50919050565b7f4e487b7100000000000000000000000000000000000000000000000000000000600052601160045260246000fdfea2646970667358221220c9f102644074ad1cf14ee0b0501eff530b721fd9c9345145302f7229d520d46b64736f6c63430008010033",
  "immutableReferences": {},
  "source": "//SPDX-License-Identifier: UNLICENSED\r\npragma solidity ^0.8.0;\r\n\r\nimport \"@openzeppelin/contracts/access/Ownable.sol\";\r\nimport \"@openzeppelin/contracts/token/ERC20/utils/SafeERC20.sol\";\r\nimport \"@openzeppelin/contracts/token/ERC1155/NFTTicket.sol\";\r\n\r\ncontract TicketFactory {\r\nusing SafeERC20 for IERC20;\r\n\r\nstruct EventInfo{\r\n    uint countOfTickets;\r\n    uint price;\r\n    uint startSale;\r\n    uint endSale;\r\n    uint nftID;\r\n    uint nftVIPid;\r\n    uint countOfVIP;\r\n    uint priceVIP;\r\n    IERC20 paymentToken;\r\n    address creator;\r\n    string nameEvent;\r\n    bytes32 saltOfEvent;\r\n}\r\nmapping(bytes32 => EventInfo) public EventBySalt;\r\nevent NewEvent(bytes32 HashOfEvent,uint DataOfEnding ,string nameEvent,uint countOfTickets,uint TicketPrice);\r\nevent BoughtTicket(address  buyer, uint countOfTicket);\r\nevent BoughtVIPTicket(address buyer, uint countOfVIPTIcket);\r\nevent AddedVIPTicket( bytes32 hashEvent,uint _countOfVIP,uint _nftVIPid);\r\n\r\nNFTTicket public nfttoken;\r\naddress public owner;\r\nuint public feePerTarget;\r\n\r\nconstructor (NFTTicket _nfttoken,uint fee){\r\n    nfttoken = _nfttoken;\r\n    feePerTarget = fee;\r\n}\r\n\r\n//_duration in second (2592000 is 1 month)\r\n//price with decimals counter;\r\n//set NFt id who does not exists\r\nfunction createEvent(uint _countOfTickets,uint _duration,uint _price,string calldata _nameEvent,IERC20 _paymentToken, uint _nftID)public returns(bytes32){\r\n    bytes32 _salt = keccak256(abi.encode(_nftID,_countOfTickets,_nameEvent));\r\n    nfttoken.mint(address(this), _nftID, _countOfTickets, _salt, _duration);\r\n    EventInfo storage info = EventBySalt[_salt];\r\n    info.countOfTickets = _countOfTickets;\r\n    info.price = _price;\r\n    info.startSale = block.timestamp;\r\n    info.endSale = block.timestamp + _duration;\r\n    info.nftID =_nftID;\r\n    info.creator = msg.sender;\r\n    info.paymentToken = _paymentToken;\r\n    info.nameEvent = _nameEvent;\r\n    info.saltOfEvent = _salt;\r\n    emit NewEvent(_salt,info.endSale,_nameEvent,_countOfTickets,_price);\r\n    }\r\n\r\nfunction addVIPticketsToEvent(bytes32 hashEvent,uint _countOfVIP,uint _priceVIP ,uint _nftVIPid) public  { \r\n    EventInfo storage info = EventBySalt[hashEvent];\r\n    require(msg.sender == info.creator);\r\n    info.countOfVIP = _countOfVIP;\r\n    info.priceVIP = _priceVIP;\r\n    info.nftVIPid = _nftVIPid;\r\n    uint timeVIPNFTlife = info.endSale - block.timestamp;\r\n    nfttoken.mint(address(this), _nftVIPid, _countOfVIP, hashEvent, timeVIPNFTlife);\r\n    emit AddedVIPTicket(hashEvent,_countOfVIP,_nftVIPid);\r\n}\r\n\r\nfunction buyTicket(bytes32 hashInfo, uint _countOfTicket) public returns(bool){\r\n    require(_countOfTicket > 0,\"cant buy zero ticket\");\r\n    EventInfo storage info = EventBySalt[hashInfo];\r\n    //uint balanceOfTicket = NFTTicket.balanceOf(address(this),info.nftID);\r\n    //require(balanceOfTicket > 0 );\r\n    require(info.endSale > block.timestamp,\"Too late to buy a ticket\");\r\n    uint amountByBuyer = (info.price * _countOfTicket );\r\n    uint ticketCostWithFee = amountByBuyer -(_countOfTicket * feePerTarget);\r\n    info.paymentToken.transferFrom(address(msg.sender),address(this),amountByBuyer);\r\n    info.paymentToken.transfer(info.creator,ticketCostWithFee);\r\n    nfttoken.safeTransferFrom(address(this),address(msg.sender),info.nftID, _countOfTicket,\"0x0\");\r\n    emit BoughtTicket(msg.sender,_countOfTicket);\r\n    }\r\nfunction buyVipTicket(bytes32 hashInfo, uint _countOfVipTicket)public returns(uint){\r\n    EventInfo storage info = EventBySalt[hashInfo];\r\n    require(info.countOfVIP > 0,\"all vip tickets are bought\");\r\n    require(info.endSale > block.timestamp);\r\n    uint amountByBuyer =  (info.priceVIP * _countOfVipTicket );\r\n    uint ticketValueToCreator = amountByBuyer - (_countOfVipTicket * feePerTarget);\r\n    info.paymentToken.transferFrom(address(msg.sender),address(this), amountByBuyer);\r\n    info.paymentToken.transfer(info.creator, ticketValueToCreator); \r\n    nfttoken.safeTransferFrom(address(this),address(msg.sender),info.nftVIPid,_countOfVipTicket,\"0x0\");\r\n    info.countOfVIP = info.countOfVIP - _countOfVipTicket;\r\n    emit BoughtVIPTicket(msg.sender,_countOfVipTicket);\r\n}\r\nfunction costOfVIPTicket(bytes32 hashevent)public view returns(uint){\r\n    EventInfo storage info = EventBySalt[hashevent];\r\n    return info.priceVIP;\r\n    \r\n}\r\nfunction costOFDefoltTicket(bytes32 hashevent) public view returns(uint){\r\n    EventInfo storage info = EventBySalt[hashevent];\r\n    return info.price;\r\n}\r\nfunction VIPticketsLeft(bytes32 hashevent) public view returns(uint){\r\n    EventInfo storage info = EventBySalt[hashevent];\r\n    return info.countOfVIP;\r\n}\r\nfunction defoltTicketLeft(bytes32 hashevent) public view returns(uint){\r\n    EventInfo storage info = EventBySalt[hashevent];\r\n    return info.countOfTickets;\r\n    \r\n}\r\n\r\n\r\n\r\n\r\n}\r\n\r\n\r\n",
  "sourcePath": "C:\\Users\\kolam\\Desktop\\ticket\\contracts\\TicketFactory.sol",
  "compiler": {
    "name": "solc",
    "version": "0.8.1+commit.df193b15.Emscripten.clang"
  },
  "schemaVersion": "3.4.6",
  "updatedAt": "2022-05-21T17:10:08.019Z",
  "devdoc": {
    "kind": "dev",
    "methods": {},
    "version": 1
  },
  "userdoc": {
    "kind": "user",
    "methods": {},
    "version": 1
  }
}